:10000000182D0020214700001D4700001D4700005B
:1000100000000000000000000000000000000000E0
:100020000000000000000000000000001D4700006C
:1000300000000000000000001D4700001D470000F8
:100040001D4700001D4700001D4700001D47000020
:10005000951400001D4700001D4700002D3E0000C4
:100060001D470000591C0000691C0000791C00009D
:10007000891C0000991C0000A91C00001D470000FD
:100080001D4700001D4700001D4700001D470000E0
:100090001D47000000000000000000001D47000098
:1000A0001D4700001D4700001D4700001D470000C0
:1000B0000000000010B5064C2378002B07D1054B3B
:1000C000002B02D0044800E000BF0123237010BDC4
:1000D000E00500200000000050C30000084B10B5F0
:1000E000002B03D00749084800E000BF0748036819
:1000F000002B00D110BD064B002BFBD09847F9E731
:1001000000000000E405002050C3000050C30000C0
:100110000000000010B5064B1B780020002B00D11A
:1001200010BD0800034B9847434258414042F7E74F
:10013000FC0500206509000010B50C00044B1B787D
:10014000002B01D10B7010BD024B98472070FAE7CD
:10015000FC0500200D0800000122024B1A7001204E
:100160007047C046FC05002070B500220A4B1A609B
:100170000A4A0B4B1A600B4A0B4B1A600B4B984701
:100180000B4D2B68986800210A4CA0472B685868D3
:100190000021A04770BDC046240C002015010000BE
:1001A000200C0020390100001C0C0020110B000065
:1001B0007C05002095A60000F0B5C64600B582B0CB
:1001C00001AC0123984663700027A77023702100BB
:1001D00008201F4DA8471F4E80235B00736121003C
:1001E0001120A84780239B02B36121001420A84757
:1001F00080235B03B36121001320A84780231B03E6
:10020000B36121001220A8478023DB02B36127706D
:100210004346637021000720A84721000220A84719
:1002200021000320A84721000920A84721000A2017
:10023000A84721000B20A84721002320A84767706A
:1002400021001520A84702B004BC9046F0BDC0466E
:100250006D15000000440041024A1378013BDBB2F7
:10026000137070470B060020002070470020704775
:100270007047000010B50022104B1A700021104B7F
:100280001A80104BA1201870813858705A809A80BB
:100290001E38D8801A810C4BE12252021A60197163
:1002A000597108229A71094B9847002804D0034AD3
:1002B00013780133DBB2137010BDC0460B0600206B
:1002C000A006002038070020040600208159000005
:1002D00070B584B0464B1B78002B01D004B070BDC4
:1002E000444B9847002843D0434B1C88434B9847C6
:1002F0008442F3D0EFF310835A425341039372B612
:10030000BFF35F8F00223E4B1A70039D3D4B1C785C
:10031000E4B262003C4BD35A002B30D000223B4B5E
:100320001A803B4B1B78002B48D163426341DBB200
:10033000344A137001222E4B1A70002D04D0304B1A
:100340001A70BFF35F8F62B6260063002E4A9B5A75
:100350001D00403D6A1E9541EDB2402B37D0254B24
:10036000984700282ED0254B9847234B188031E022
:10037000214B1C88274B98478442BBD1AEE7234AC8
:100380001388013313801B4B9847002803D11F4B60
:100390001B88632B08D9174B98470028BED01E4BEB
:1003A0001A4A12889A42B9D8002D00D196E7012244
:1003B000134B1A70BFF35F8F62B68FE762425441EE
:1003C000E4B2B7E7134B98470B4B188002E00022CA
:1003D000094B1A8076000C4BF35AA4010F4A1419EA
:1003E0000F4A00922200290081200E4CA04775E799
:1003F000340700206531000030070020793100000B
:10040000F40000202C07002028070020FE05002013
:10041000A4060020693100001F030000A806002088
:10042000290400007134000010B5002800D010BD70
:10043000074B1B785A4253415B0000220549585232
:10044000054B1A70054B1A70054B9847EFE7C046ED
:100450002C07002028070020A406002034070020D5
:10046000D102000010B50020014B984710BDC046D6
:10047000D102000010B5064A1378013BDBB21370BD
:100480001378044B98470022034B1A7010BDC046E6
:100490000C060020855900000006002010B5204BF6
:1004A0001A7853B2002B05DB602313400020202B69
:1004B00014D010BD602313400020202BF9D1184B1D
:1004C0005B78212B29D1164BDB88072BF1D1144BFC
:1004D000144A9A6007229A810130EAE7104B5B7850
:1004E000202B03D0222B0FD00020E2E70C4BDB881F
:1004F0000020072BDDD10A4B0B4A1A61094A9A608A
:1005000007229A810130D4E7054B5B88012119400D
:100510000020064B98470120CBE70020C9E7C046E2
:10052000C40A002004060020710200007159000076
:1005300082B0EFF310835A425341019372B6BFF376
:100540005F8F00220A4B1A70019A0A4B19880A4BD6
:100550001B785B000948185A401A002A05D001226E
:10056000034B1A70BFF35F8F62B602B07047C0468C
:10057000F400002098060020940600209006002039
:1005800010B5034B9847431E9841C0B210BDC046FA
:100590003105000010B584B0EFF310835A42534187
:1005A000039372B6BFF35F8F00221F4B1A70039B39
:1005B0001E4A1478E4B21E4A1278002A07D11D4A56
:1005C000128861001C48095A92B28A420AD200205D
:1005D000002B05D00122144B1A70BFF35F8F62B657
:1005E00004B010BD0021134A118062426241D2B2B0
:1005F0000E490A7001210E4A1170002B05D001220C
:10060000094B1A70BFF35F8F62B600200B4B9847FF
:10061000A4010B4A12190B4B009340230121022025
:10062000094CA047DCE7C046F400002094060020F7
:100630009C060020980600209006002081050000FE
:1006400010060020DD0600007134000070B50024A3
:10065000154B1C70154B1C70154B1C70154B1C70EA
:10066000154B00251C805C80144B1C800020144B13
:100670009847144B1D70144B1D70144B1C805C80EC
:10068000134B1C800020134B9847002807D0064AC4
:1006900013780133DBB213701378012B00D070BDD7
:1006A00001220D4B1A70FAE70C06002034070020D7
:1006B000A40600202C070020280700203007002077
:1006C000D10200009C060020940600209006002025
:1006D00098060020950500000006002010B582B0A5
:1006E0001400002810D10F4B1A7853425A41D2B24D
:1006F00000290BD089B252000B4BD15200220B4B78
:100700001A7000200A4B984702B010BD9201094BA5
:100710009A18094B0093402301312000074CA04751
:10072000F2E7C04694060020900600209C060020B8
:100730009505000010060020DD0600007134000061
:10074000F0B5D6464F464646C0B582B0274B9B799A
:10075000093B5A425341DBB2994600239C46244B45
:1007600098460027234E244C05E08B4229D3234B87
:100770001B78002B1DD0EFF310835A425341019395
:1007800072B6BFF35F8F43461F70019833889BB2E8
:100790002278D2B255001A49695A89B20028E4D0A9
:1007A00001208246124855460570BFF35F8F62B63E
:1007B000DBE70025280002B01CBC90469946A24603
:1007C000F0BD92010F498A18D25C6546154301338A
:1007D0009BB2084A138000200B4B98474B46002BD6
:1007E000E8D02B029C4600239946C4E7040600206B
:1007F000F400002098060020940600200006002047
:1008000090060020100600209505000010B500207D
:10081000014B984710BDC0464107000082B0EFF37E
:1008200010835A425341019372B6BFF35F8F002287
:10083000144B1A700199144B1B78DBB25800134A01
:10084000825A402A0BD04020801A002905D001226C
:100850000C4B1A70BFF35F8F62B602B070470C4842
:1008600000780028EFD10B4800780028EBD1013048
:10087000084A10705A425341DBB2034A13700022F7
:10088000E1E7C046F40000202C07002028070020E4
:1008900034070020A406002010B5034B9847431EE0
:1008A0009841C0B210BDC0461D080000F0B5DE463C
:1008B00057464E464546E0B583B00C00224B9D7925
:1008C000093D6B425D41EDB2204E214B9846214BD4
:1008D0009A4627E0EFF310835A425341019372B6D0
:1008E000BFF35F8F002342461370019B9B46534624
:1008F0001B78DBB2184A94465F00B95A4A1C60461E
:100900003A529B01154AD3185C545B46002B05D024
:1009100001220F4B1A70BFF35F8F62B6002D10D00B
:10092000241200250020B0470028D3D10C4B1B789F
:10093000002BF7D103B03CBC90469946A246AB468B
:10094000F0BD0120F6E7C04604060020990800002B
:10095000F40000202C07002028070020A806002013
:100960000006002010B501000020014B984710BD83
:10097000AD08000010B5114B1B681A689478D37845
:100980001B022343D2180378C018904210D2437838
:10099000042B0FD08B420AD00378C018904205D2A6
:1009A0004378042B08D08B42F6D100E0002010BD24
:1009B0000020FCE70020FAE70020F8E750070020BD
:1009C00010B5034B5B887F201840024B984710BD41
:1009D000C40A00204936000070B5194B1B7800226C
:1009E000002B29D0174B1B681B681C79844223D924
:1009F000154A13609A78DC78240214431C19A34228
:100A00001CD20025012607E00F4A13600FE01A7878
:100A10009B183500A3420CD25A78042AF7D19A7851
:100A20008242F4D1DA788A42F1D1002DECD1012250
:100A300002E0054A13600022100070BD0022FBE7AF
:100A40004C0700205007002054070020F0B5C64690
:100A500000B504000021134B9847051E03D1280060
:100A600004BC9046F0BD104B1B685B68A200D358D5
:100A70009846DB689847010020000A4B9847051EFE
:100A8000EDD00A4B1C680A4E0A4F05212000B047E2
:100A9000041E02D08078B847F7E743465B68984762
:100AA000DDE7C046D90900005007002054070020A8
:100AB0007509000089310000F8B505000F4B984713
:100AC000002819D00E4B1C680E4E0F4F0521200038
:100AD000B047041E09D00379427912021A43C17843
:100AE0008078B8470028F1D106E0084B1B685B68A6
:100AF000AD00EB581B689847F8BDC046D909000007
:100B00005407002075090000E13100005007002063
:100B100010B5014B984710BDF936000070B50E4B6B
:100B20001B78002B11D00D4B1B681B681B79002B09
:100B30000BD000240A4E094D2000B0470134E4B226
:100B40002B681B681B79A342F6D80023024A137056
:100B5000044A138070BDC0464C0700205007002097
:100B60004D0A00004207002070B50E4B1B78002B89
:100B700017D00D4B1B681A681279002A11D0002477
:100B8000094D06E00134E4B22B681A681279A242DA
:100B900007D95B68A200D3581B69002BF2D0984795
:100BA000F0E770BD4C07002050070020F8B5AA4BB5
:100BB00000229A811A615A611B785AB2002A13DB0B
:100BC00060221A4200D1D6E0A34B1A781F231340AB
:100BD000012B00D172E1A04B1A781F231340002093
:100BE000022B00D1C8E1F8BD9B4AD2880020002A20
:100BF000F9D060211942E7D11F210B4008D1964955
:100C00004978062923D0082900D183E0002917D08C
:100C1000012B00D186E0022BD6D18F4B5B780020D0
:100C2000002B00D0A4E1022AD5D18B4B18798B4B35
:100C300098478B4B1880022118008A4B9847FBE09D
:100C4000022AC8D102318848864B9847F4E0824B8B
:100C50005A88130A022B23D0D9B202290FD9032BA9
:100C600034D00F2B00D080E1804B98680028B2D0A0
:100C70008378C178090219437A4B984707E0012B22
:100C800000D072E1794B18680178764B9847724B27
:100C9000DA889B89934200D8CEE06F4B9A81CBE0F3
:100CA000D2B2724B1B685B7C934200D893E76F4BC8
:100CB0005B68D200D0588378C17809021943694B28
:100CC0009847654B9B6802225A70E0E7FF231A4061
:100CD000012A1CD0002A15D0022A00D074E7644CE7
:100CE0000F21644A0023E05C508001330232D8B205
:100CF0008842F8D3490002315E48017089B2594BED
:100D00009847C4E704215C48564B9847BFE75B4CC3
:100D10000921E6E7012A00D05DE701215848514B3F
:100D2000984789E04C4949780A2900D073E7012A9D
:100D300000D0C3E0524B1B78002B00D1BEE0464BE5
:100D40001C79504B1D682B681B79A34200D8B5E075
:100D5000002120004C4B9847002800D134E76B68F5
:100D6000A400E358DB689847484B1870012118002D
:100D70003C4B984760E01F2213405FD1364A5278BF
:100D8000032A00D1F3E0D1B203293BD9052A4BD085
:100D9000092A53D1304BDB88002B00D01BE73C4B9A
:100DA0009847002800D10FE72B4B9A782F4B1B68F0
:100DB0005B7C9A4200DD07E7364B9847264B9B78D1
:100DC0002F4A1370002B37D0334A94466344DB001C
:100DD000264A5268D3182B4A13601B681B79002BD4
:100DE0002AD000242D4D160000212000A8470028FD
:100DF00000D1E9E60134E4B233681B681B79A342F1
:100E0000F2D819E0012A19D1134BDB88002B00D04E
:100E1000E1E6114B5B88012B00D0DCE6124A138817
:100E200002218B43138007E00B4BDB88002B00D0A3
:100E3000D1E61B4A084B1A610120D4E6012B31D0C0
:100E4000022B00D0C0E6044B5B78012B6CD0032B47
:100E500000D178E000208BE0C40A0020E9320000D5
:100E600044070020693600004207002034000020BB
:100E7000E4000020B4000020D4000020D8000020AE
:100E80004C07002050070020D90900004807002027
:100E9000593600001D0B0000FFFFFF1FB90A0000BC
:100EA000C1090000484A52780B2AC9D1464BDB8859
:100EB000002B03D1454B1B78002B27D1434B1B78CC
:100EC0000020002B00D18EE63F4B1C79404B1D6863
:100ED0002B681B79A34200D885E6002120003D4BFA
:100EE0009847002800D176E66B68A200D558EB68D9
:100EF000984701002000374B9847002800D16AE648
:100F0000AB689847002800D06DE664E62E4B1D794B
:100F10005C882800304B9847002800D154E6E1B2A5
:100F200028002E4B984723E0274BDB88002B00D06E
:100F300051E6254B5B88002B00D04CE6224B1879FC
:100F4000274B984714E0204BDB88002B00D042E66B
:100F50001D4B5B88002B00D03DE61B4C2079214BBC
:100F600098472079204B984702E0002000E00020BD
:100F7000002800D037E627E6144B1B78002B00D161
:100F800031E6134B1B681A681279002A1AD0002523
:100F9000104E0F4F5B68AA00D458E36898470100D1
:100FA0002800B047002800D11DE6A3689847002814
:100FB00000D018E60135EDB23B681A681279AA42F2
:100FC000E8D810E600200EE6C40A00204C070020F6
:100FD00050070020D90900004D0A0000B90A00009E
:100FE0002D34000029310000FD3200000C4B1B683D
:100FF000002B06D1EFF31083002B07D00022094B02
:101000001A70074A136801331360704772B6BFF352
:101010005F8F0022044B1A700132024B1A70F0E706
:10102000580700205C070020F4000020084B1A68D5
:10103000013A1A601B68002B09D1064B1B78002B64
:1010400005D00122044B1A70BFF35F8F62B6704760
:10105000580700205C070020F400002010B5002293
:101060000023027042700021428001710376026207
:10107000C26182600373C0246401C4810374437439
:101080008374C37403752A24035543758375063C22
:101090000355C2840285C1752B23C1540133C15449
:1010A00010BD0000F0B5D6464F464646C0B596B0D6
:1010B000070016000160CB4A106A80235B020343DD
:1010C00013620B780520DB0705D516B01CBC9046D3
:1010D0009946A246F0BD0B7817309B07F5D473787C
:1010E0003B71002B04D1C04A136C04210B431364E1
:1010F0003B68984633786A46137069461E20BB4B9E
:1011000098471E20BA4B98472C23F25C002A54D0F3
:10111000013BF55C337BEB18DBB2D118C9B28B42D3
:1011200021D25219D3B29946B24B9A4603E0013507
:10113000EDB2A94517D00F242C40337BE418502280
:10114000AD4902A8D047132CF1D8A40002ABE05857
:1011500001A900234B70CB708B7001330B70C0B2B0
:10116000A64B9847E3E7F4895022A34902A8A14B74
:101170009847132C13D9737D9B00DBB24246137042
:10118000B37DDB0172781343DBB24246537033798F
:10119000342B00D978E19B00994AD3589F46A4008C
:1011A00002ABE05801A900234B70CB708B70013368
:1011B0000B70C0B2914B9847DDE7347B50228E49CB
:1011C00002A88C4B9847132C15D9F48950228A49D0
:1011D00002A8884B9847132CCDD8A40002ABE05846
:1011E00001A900234B70CB708B7001330B70C0B220
:1011F000824B9847BFE7A40002ABE05801A9002347
:101200004B70CB708B7001330B70C0B27B4B984727
:10121000DBE70423102402211AE0717C337C1024C4
:1012200016E006231024012112E0082310240021D7
:101230000EE00023302400210AE0002320240021B6
:1012400006E000230024002102E0022310240121F3
:10125000090170220A40134342469370F37D172020
:101260003F2B00D931E7D3703A68537E5BB2002B35
:10127000FBDBF37C728813432422B25CD20013435D
:10128000327D92001343B27C520013432343424603
:101290009380337E002B20D0102C00D1D6E000D8D4
:1012A00080E0202C00D1B3E0302C16D1F27C002A53
:1012B0000AD0F26980321720FF2A00D905E7326A86
:1012C0008032FF2A00D900E71720F269FF2A00DDEB
:1012D000FBE6326AFF2A00DDF7E639684A7E52B241
:1012E000002AFBDB424613723A68537E5BB2002B46
:1012F000FBDBB38B424693833A68537E5BB2002B91
:10130000FBDB338C424613842C23F35C002B05D08B
:10131000013BDBB217200F2B00D9D6E62B22B15CA4
:1013200017200F2900D9D0E63868427E52B2002A31
:10133000FBDBF289307B0243B068024309050A43B4
:101340001B041343424613612A23F35C13750F23D6
:1013500093751533F35C002B12D0F38C294A1720B8
:10136000934200D9B1E642469384328D80231B011B
:10137000D31824499BB28B4200D9A6E64346DA84AF
:10138000214B1B685B01E022D20013401F4A5168C9
:1013900049011268D20E0A43D2B213434246138562
:1013A000002092E6002C98D1F27C002A0FD0F2693E
:1013B000802109018C466244124917208A4200D9D3
:1013C00083E6326A62440F498A4200D97DE60D4ABB
:1013D0001720F169914200DD77E6316A914200DD24
:1013E00073E67AE700040040000800406D29000021
:1013F000E12800003DA60000A8BA0000652A000010
:10140000D4B90000FF0F000024608000206080003D
:10141000F27C002A0FD0F269802189008C46624458
:101420001A4917208A4200D94FE6326A62441749A6
:101430008A4200D949E6154A1720F169914200DD38
:1014400043E6316A914200DD3FE646E7F27C002A3E
:101450000FD0F269802109028C4662440C491720A2
:101460008A4200D931E6326A624409498A4200D987
:101470002BE6074A1720F169914200DD25E6316A23
:10148000914200DD21E628E717201EE6FF03000059
:10149000FFFF000070B50022104B1A7000231049A6
:1014A0001F25104E0D4C0AE00D4908E0237801334A
:1014B000DBB223700F2B10D800211F2BF4D928008A
:1014C00018400122824008691042EFD00A619B0057
:1014D0009B59002BEAD09847E8E770BD59080020D7
:1014E000001800405C080020044A137802210B43D6
:1014F000137053785BB2002BFBDB70470018004081
:1015000000B583B0124A936940210B43936101A94E
:1015100000230B7005200F4B984705200E4B984772
:101520000E4A137801210B43137053785BB2002BE2
:10153000FBDB0B4B19004031002204C39942FCD164
:101540001022084B1A60084B984703B000BDC046F4
:10155000000400406D290000E12800000018004050
:101560005C08002000E100E0E914000000B583B051
:1015700001AB80221A700A785A704A789A708A7879
:10158000DA701900014B984703B000BD652A0000CE
:1015900001680722CB691A42FCD17047F0B5D646E4
:1015A0004F464646C0B58AB006000F0014003160B1
:1015B0000800974B9847974A116A851C0123AB4056
:1015C0000B43136209A9237B0B701430C5B22800AA
:1015D000914B98472800914B9847207B0021904BD6
:1015E00098473B681C209B0705D50AB01CBC904659
:1015F0009946A246F0BD3B681738DB07F5D41423A3
:101600003B60336898461800814B9847050080235B
:1016100008AA137000235370012208A98A70CB70A6
:10162000E069276A002800D1AFE008AB18700223F8
:1016300008AA5370000CC0B211007A4B9847002FD3
:1016400000D1A7E008AB1F70022308AA53703F0C1B
:10165000F8B21100734B9847A38AF380E38A338171
:10166000237E8022002B04D16F4B9B789B07DB0FDE
:10167000DA01A16823690B4313432422A25C002AE8
:1016800002D08022D2051343A26A13432C22A25C0B
:10169000002A03D180229204914202D180221205B5
:1016A00013432D22A25C002A02D08022120413438D
:1016B0002E22A25C002A02D08022D203134342468B
:1016C000126813434246136080235B005360280076
:1016D0001430C0B2554B98470790FA239B002268FC
:1016E0005A43914663689A46514DA847009001912C
:1016F0004B465800A84702900391208EA8470490BB
:1017000005914C4F4C4A4D4B00980199B847020047
:101710000B0004980599B847494E0022494BB04741
:10172000049005914846A84702000B0004980599CB
:10173000B84702000B00444D00980199A847029A4F
:10174000039BB0470022414BA847029A039B404DA0
:10175000A847404B9847050080239B04A2689A4203
:101760001ED003004020FF2D00D93EE700240020BA
:10177000FF251D40240625430004FF231B041840B9
:1017800005434346DD6000202FE700214046324BF1
:1017900098474AE7012140462F4B9847070051E7F9
:1017A000FA26B60053465E430098019902000B00EA
:1017B000234CA0470090019130001D4B9847002218
:1017C000264BB84702000B0000980199204CA04717
:1017D00000221E4B1C4CA0471E4B9847041E0CD0E9
:1017E000310007981E4B98470238001B2B00FF2D35
:1017F0000CD8FF28BCD94020F7E67100481E079B93
:101800009C466044164B98470138EFE74020ECE6D1
:10181000211C0000000400406D290000E1280000A8
:101820005D1A0000652A000000200041892900009F
:10183000A9A300005197000095D626E80B2E113E73
:10184000C988000000002440519C00000000F03FC7
:10185000E98E0000BDA20000A91A000000000840A7
:10186000517C000003681A7E920707D502221A767F
:101870005B8B9B074120DB17184070475A8B520740
:1018800006D55968C02292020A435A601820F4E72C
:101890000020F2E730B50268002301240225117E02
:1018A00021420BD1117E294206D101339BB201891D
:1018B0009942F4D8122002E0002000E0002030BD60
:1018C00010B5046862688023DB02134363606162C1
:1018D000024B98470123237610BDC046951800009F
:1018E000F0B5DE4657464E464546E0B583B00600A5
:1018F0000F0005684C88324B98477B7A002B1DD12E
:101900006B68304A13406B603B7A002B1BD03B88DE
:101910005B007A7A920313438022120213436B62B4
:101920003000294B98470190002813D0019803B04C
:101930003CBC90469946A246AB46F0BDB97A300011
:10194000224B9847DCE73B885B007A7A920313438B
:101950006B62E5E730001E4B9847031E0190E5D10E
:10196000A046002420339946154B9B46164B9A46B9
:10197000444515D06B8B4A4613421DD03000D847E2
:101980007B681A5D2823EA543000D047002806D12E
:101990006B8B01345B07EBD51E23019300E00190B4
:1019A000B37A002BC2D03000054B98476A68C02339
:1019B0009B0213436B60B9E741230193B6E7C0462E
:1019C00091150000FFFFFBFF95180000C1180000F3
:1019D0006518000010B501238372C372014B98474C
:1019E00010BDC046E118000010B50023837201331A
:1019F000C372014B984710BDE118000010B5046890
:101A0000034B98476268C0239B021343636010BD79
:101A10009115000070B504000E000568034B98474F
:101A20002823EE542000024B984770BD911500000A
:101A30009518000010B5490840230024814202D2C5
:101A4000180010BD1C00091A631C9BB28842F9D90A
:101A50004023FF2CF4D814800023F1E710B582B0A6
:101A600004000E4B1B78002B07D0002905D10B4B2F
:101A70005B78834210D01D200CE001A90C7013206C
:101A8000074B98471320074B9847044B5C70012283
:101A90001A70002002B010BD0020FBE76007002094
:101AA0006D290000E1280000404B984231D00AD94E
:101AB0003F4B98424DD03F4B98425AD03E4B9842B4
:101AC00037D0002070473D4B98420CD03C4B984299
:101AD000F7D1012917D000295DD0022915D003299B
:101AE00015D00020EEE7012907D0002951D00229A6
:101AF00005D0032905D00020E4E73248E2E7324868
:101B0000E0E73248DEE73248DCE73248DAE73248DD
:101B1000D8E7012907D000293FD0022905D00329A1
:101B200005D00020CEE72D48CCE72D48CAE72D4848
:101B3000C8E7012907D0002931D0022905D003299F
:101B400005D00020BEE72848BCE72848BAE7284867
:101B5000B8E7012907D0002923D0022905D003299D
:101B600005D00020AEE72348ACE72348AAE7234886
:101B7000A8E7012907D0002915D0022905D003299B
:101B800005D000209EE71E489CE71E489AE71E48A5
:101B900098E71E4896E7032094E71D4892E71D4802
:101BA00090E71D488EE71D488CE7C04600100042B4
:101BB00000180042001C00420014004200080042CD
:101BC000000C0042030005000300060003000700AC
:101BD0000300010003001E0003001F0003000900B2
:101BE00003000A0003000B000300110003001200B1
:101BF0000300130003000D0003000E0003000F009C
:101C0000030017000300180003001900030004007C
:101C1000030008000300100003000C00030016007E
:101C200030B587B00B4B6A4632CB32C232CB32C2B0
:101C3000009B83420BD001239A006946525882428E
:101C400006D00133062BF7D1002007B030BD0023AA
:101C5000D8B2FAE7F8BA000010B5024B1B680020B2
:101C6000984710BD6407002010B5024B5B68012047
:101C7000984710BD6407002010B5024B9B680220F6
:101C8000984710BD6407002010B5024BDB680320A5
:101C9000984710BD6407002010B5024B1B69042053
:101CA000984710BD6407002010B5024B5B69052002
:101CB000984710BD64070020F0B5D6464F4680B562
:101CC0008BB081460F001400030019600B689B075E
:101CD00009D40B680520DB0700D4B1E00BB00CBCC5
:101CE00091469A46F0BD936A0593D36A0693136BA7
:101CF0000793536B0893002605AB01930AE0380065
:101D0000AF4B98470CE00F23184081422DD101368C
:101D1000042E2FD0F1B2B300019A98580028EED0CB
:101D2000431CF4D00104090C000CC3B29C460023F0
:101D3000020605D463465B09DB01A24A924653447E
:101D40001F2260460240981840300078824680206A
:101D50005546ED07D9D552089B1830331878C0B2D4
:101D60006346DB07CFD50009CFE700234A4613605F
:101D70001C20B3E71320944B984722780025012AB2
:101D800016D02178002927D13B68E27F1204A07F7A
:101D900002431C209A42A1D1A369A28B0430205C8B
:101DA000002801D040200243082003431D4314E0D3
:101DB00004AA0100A069854B984703001720002B57
:101DC00000D08BE73B7BDBB204AA127805309A4245
:101DD00000D083E70C35D4E700226368A068034392
:101DE000E06803432B43207C0243607C002801D041
:101DF00080200343A07C002802D080208002024380
:101E0000E07C002802D0802080000243207D002852
:101E100002D0802080010243386802252B43834290
:101E200004D000234A4613601C2057E77B68934286
:101E3000F7D14B465971237C4A46937100204DE7F8
:101E40000800634B9847634A116A851C0123AB4025
:101E50000B43136209A92426A35D0B701430C5B28D
:101E600028005D4B984728005C4B9847A05D0021F7
:101E70005B4B98472378012B20D02378002B03D18C
:101E80003B68082213433B604B461E6804AB80222C
:101E90001A7000225A7001219970DA702378002B91
:101EA00001D104AB9A70A36A0593E36A0693236B8E
:101EB0000793636B0893002705AD11E03B680C2284
:101EC00013433B60D9E730003D4B98470DE004A930
:101ED0000870000CC0B2434B98470137042F07D05D
:101EE000F9B2BB0058590028EDD0431CEFD1F4E7FC
:101EF00023784A465371237C9371A37CD371237D4D
:101F00001372002202ABDA802378012B12D02378DF
:101F1000002B27D1A069A28B736AE17F0904A57FFA
:101F20002943194371622023E35C002B1CD040231A
:101F30001A4319E04B461868254B98471430C0B235
:101F4000214B9847010002AB9A1DA0691F4B98478F
:101F500003001720002B00D0C0E602AB06331B782D
:101F60003373D4E7002200206368A1680B43E16863
:101F70000B430343217C0A43617C002903D11A49A6
:101F80008978890701D580210B43A17C002902D0E3
:101F9000802189020A43E17C002902D08021890046
:101FA0000A43217D002902D0802189010A4331683A
:101FB0000B43336073681A43726000208EE6C0469C
:101FC000A91A00000044004189290000351A0000C8
:101FD000211C0000000400406D290000E1280000E1
:101FE0005D1A0000652A00000020004170B5C47928
:101FF0001C23002C01D1180070BD4379002B0ED199
:1020000005682B7EDB070AD4234B01262C7E344245
:1020100005D1012B3CD0013B9BB2002BF6D10468CB
:102020000125237E2B42FCD0237EDB0702D5C90588
:10203000C90DA1624379002B0ED10468237E5B0792
:102040000AD4154B0425217E294205D1012B21D02C
:10205000013B9BB2002BF6D1016804240B7E234286
:10206000FCD00C7E10236407C5D54C8B002364077D
:1020700002D504334B831A338079012803D0896A4F
:10208000C9B21180B7E7896AC905C90D1180B2E7E5
:102090001223B0E71223AEE71027000010B54479F1
:1020A0001523012C01D0180010BD047A0023002C48
:1020B000F9D1002A58D04B78002B44D003681B7EFE
:1020C000DB0710D40A78D1090023002904D1530971
:1020D000DB012E498C4663441F21114001228A40B6
:1020E0009A610523DFE70A78D4090023002C04D184
:1020F0005309DB01254CA44663441F2414400122EC
:10210000A2405A6103681A7ED20701D58A789A6282
:10211000C2790023002AC6D102680421137E0B4233
:10212000FCD0117E00234907BDD5538B5B0701D539
:10213000042353838379012B02D0936A0023B2E7EF
:10214000936A0023AFE70A78D1090023002904D15C
:102150005309DB010D498C4663441F2111400122C4
:102160008A405A6100239EE70A78D109002300299A
:1021700004D15309DB0105498C4663441F211140FA
:1021800001228A409A6100238DE7C0460044004145
:10219000F0B5DE4657464E464546E0B585B0884622
:1021A000039299461724002B07D1200005B03CBCB0
:1021B00090469946A246AB46F0BDC3790534002B44
:1021C000F3D04379002B03D103681A7E920707D41A
:1021D0004B46591E89B200239A460122042775E016
:1021E00002221A76F4E7022333760424DDE7023371
:1021F0009BB24446A65D36025C4634438FE0023310
:102200009BB241466646895D0902029E0E431AE072
:102210000199013989B201910468267E3E4219D1A3
:10222000013D002D16D00468267E1642F4D05E1CB7
:10223000B6B2B4464646F15C0E000291817901299E
:10224000DDD0B6B26346217E1142E1D0F605F60D2F
:10225000A662DDE70199257E0226354205D1247E5E
:102260003C4200D1CEE00E0004E002232376042499
:102270009BE70E000568297E3942FCD049460139AA
:1022800089B28946297E394200D1BDE0698B00249C
:102290000194394202D06F831E2101918179012975
:1022A00049D0AD6AEDB20199002900D0B4E05146A1
:1022B000013189B28B46039C514665548479012CC7
:1022C0003DD0DA46711E89B2002E45D04479002CEB
:1022D00013D10668347E144206D1504C357E154227
:1022E00002D1013C002CF9D1347E02252C4200D0D1
:1022F00079E7347E144200D182E005682C7E1442D6
:10230000FCD05E1CB6B24446E45CA3468479012C42
:1023100000D16CE75B466C46A380A48833002E7E18
:10232000164202D0E405E40DAC624479002CA0D141
:102330003B4D019177E7AD6AED05ED0DB3E7022165
:102340008C46E24451466C46218121898A462D0AF9
:1023500003995C460D55B5E7019C4379012B10D0DC
:10236000002B00D021E74B46002B00D11DE70427AE
:1023700021001E2504005046039B984602914946C1
:1023800026E0016802220B7E1342FCD00DE7337E6B
:102390003B423BD0013989B2337E3B4238D0738B0C
:1023A000029A01923B4201D077830195A379012BD8
:1023B0001AD0B66AF6B2019B002B2BD1431C9BB2FC
:1023C00042461654A279012A12D01800002915D0CD
:1023D0002668337E3B42DAD1104B327E3A42D6D168
:1023E000013B002BF9D1D2E7B66AF605F60DE2E71C
:1023F000023080B2360A4246D654E7E7019CD4E662
:102400001224D2E61224D0E61024CEE61224CCE622
:102410001024CAE6019CC8E6019CC6E6102700000D
:102420001127000010B5082803D880001C4B1B584A
:102430009F46002032E01B4B18692FE01A4B1B6AA5
:102440009B059B0F1948D84028E0164B586925E09A
:10245000144B1B6800209B0720D513491022CB6822
:102460001A42FCD00F4B1A6824231340042B01D0CE
:102470000F4813E000200F4B98470A4B9B681B0442
:102480001B0C58430AE05023074AD35C00205B072B
:1024900004D5044BD86801E08020000210BDC0467E
:1024A00010BB00007C0700200008004000127A00EA
:1024B000006CDC028929000070B50C490B6A0478B5
:1024C000857840780122104080014026B3430343C1
:1024D0002A40D20180208343134303222240120268
:1024E0000348034013430B6270BDC0460008004020
:1024F000FFFCFFFF10B5037A9B061B0C4289920577
:10250000920D134318494B608379C2791343428873
:102510008488224313434278D20113430B6003782B
:10252000042B11D0202B0ED1037B9B06028A134370
:10253000C28912040D490A4013430B4A9360116883
:102540000B4B0B43136010BD037B9B06028A1343A6
:10255000C289120405490A401343034A9360136871
:1025600004210B431360EEE77C0700200000FF030B
:1025700024040000082803D88000254B1B589F46E0
:10258000172044E0234A136A02210B431362002000
:102590003DE0204A936902210B439361002036E01D
:1025A0001C4A138A02210B43138200202FE0194A90
:1025B000938A02210B439382002028E016490B687E
:1025C000022213430B60134B9A8419000E32CB681E
:1025D0001A42FCD0104A91680E4BD96252689A6236
:1025E00000229A8419001032CB681A42FCD00A4BA0
:1025F0001B689BB2074A9384002008E005494422E7
:102600008B5C022003438B54002000E000207047C5
:1026100034BB0000000800407C07002070B58AB081
:10262000C222D200364B9A60364A53681E218B4331
:102630001A390B435360022201AB1A700024324D49
:10264000E0B201A9A8470134252CF9D105AB00223D
:10265000002159809A71DA71203119705A702B4B10
:102660001B689B0E3F2B49D005A8037207230373F9
:102670000333C381264B4381FF3B8380254B038279
:10268000254B984704A800244470012686700470E6
:10269000224B98470620224DA847224B984701A974
:1026A0004E604C7006230B700C724C7201201E4B56
:1026B000984701201D4B98470720A8471049102232
:1026C000CB681A42FCD00E4A938C80210B43938432
:1026D000174A0023137253729372D37201A9012215
:1026E0004A604B704B7207330B700A7200200E4B1E
:1026F000984700200D4B98470AB070BD203BB3E7C8
:1027000000080040004000416D2900002460800066
:10271000FF01000080BBFFFFF5240000B92400008A
:1027200075250000352700005927000011280000FA
:1027300000040040064A936908210B43936101227B
:10274000044B1A7019000B781342FCD17047C04635
:1027500000040040000C004070B5060004000D7835
:102760002D0205434B78002B02D08023DB021D4352
:102770004B7A002B02D080231B031D43486801289D
:1027800010D9431E184234D1022830D90223002226
:1027900001325B009842FBD81202324314008023BE
:1027A0005B031D430B7A002B02D080239B031D4348
:1027B000134A53785BB2002BFBDB124B9847124B4A
:1027C0001E700F4A53785BB2002BFBDB0C4B9C60F6
:1027D0001A0053785BB2002BFBDB094A5368802157
:1027E00049020B401D435560084B984770BD0022BD
:1027F000D2E70402344380239B021D43D2E7C04644
:10280000000C0040ED0F0000080C00402D100000EF
:1028100010B504000B4A53785BB2002BFBDB0A4B6C
:1028200098470A4B1C70074A53785BB2002BFBDBBE
:10283000044A516880235B020B435360044B984762
:1028400010BDC046000C0040ED0F0000040C00401D
:102850002D10000070B504001A4A53785BB2002BAB
:10286000FBDB194B9847194B1C70164A53785BB227
:10287000002BFBDB134E7068C004C00E144B98474E
:102880000500124B1C707668F602F60F114B1C7097
:102890000C4A53785BB2002BFBDB0A4B9C6824028A
:1028A000240C0D4B9847002E07D1012C07D921008D
:1028B00028000A4B9847050001E00134E540280054
:1028C00070BDC046000C0040ED0F0000040C00403D
:1028D00025240000080C00402D100000517C000051
:1028E00010B50400064B9847064B1C70064A5388E7
:1028F0008021C9010B435380044B984710BDC0464B
:10290000ED0F0000020C0040000C00402D100000F4
:1029100010B504000F4B98470F4B1C700F4A53889B
:102920001B05180F53880E490B40538053880D49DF
:102930000B40538011008022D2014B881342FCD1FE
:1029400006494A8803020648024013434B80064B5F
:10295000984710BDED0F0000020C0040000C004035
:10296000FFF0FFFFFFBFFFFF2D10000010B50C7838
:1029700024020443024B9847A4B2024B5C8010BD72
:1029800011290000000C004010B50400064B9847C8
:10299000064B1C70064B5C882405240F054B98479A
:1029A0002000054B984710BDED0F0000020C0040C1
:1029B000000C00402D1000005528000030B5D378E1
:1029C000002B35D11378802B29D01B06802464027C
:1029D000234354780225AC4306D19478002C20D1AF
:1029E0008024A402234341605478013C012C1CD96B
:1029F0000D042D0CA024E4052C431C4384620D0C13
:102A0000D02424062C431C438462D478002C22D189
:102A10005B031CD59378012B1ED0416117E0002386
:102A2000D7E7C024E4022343DDE70D4C2340DFE772
:102A300041600C04240CA023DB05234383620C0CAF
:102A4000D0231B0623438362D378002B03D1537812
:102A5000013B012B02D930BD8161F8E78160FAE7C3
:102A6000FFFFFBFF10B50A00C1090023002904D1B4
:102A70004309DB0105498C4663441F2420400121A2
:102A800081401800024B984710BDC04600440041E9
:102A9000BD2900007047000010B5054B9847054B55
:102AA0009847054B9847054B9847054B984710BDED
:102AB0001D260000B9010000952A00000115000044
:102AC000952A000010B584B003AB00221A700332BF
:102AD0005A70013A9A70013ADA70274B1B78834298
:102AE00007D0002807D1244B1B78002B23D1224B81
:102AF000187004B010BD03AB1B5C204AD25CFF2AE7
:102B000000D1FEE7EFF3108251424A41019272B6C2
:102B1000BFF35F8F00211A4A1170019C1749CA5CEC
:102B20000132CA54002CDED00122154B1A70BFF3BB
:102B30005F8F62B6D7E703AAD35C104AD25C002A43
:102B400000D1FEE7EFF3108251424A41029272B681
:102B5000BFF35F8F00210A4A1170029C0749CA5CCB
:102B6000013ACA54002CC2D00122054B1A70BFF39F
:102B70005F8F62B6BBE7C0461408002054080020EF
:102B8000F400002043060BD00F2303405B00C00974
:102B900018180238830018188000024B1818704764
:102BA0000020FCE79C070020F0B5D6464F4646467D
:102BB000C0B589468D796BB2002B26DB28005E4BB1
:102BC000984704000F272F40038A98464B461B88DE
:102BD0009A46837C5B076AD4E36853441E00E36033
:102BE000A3689E4200D874E0E360A37C0122934373
:102BF000A3742368002B03D0E1682A0000209847C3
:102C00001CBC90469946A246F0BD28004A4B984706
:102C100004000F272F40038A98464B465E88C368FE
:102C20009C466644C66081688E4225D08D1BADB23D
:102C3000424B9D4206D91D0041461800404B984723
:102C40006D1AADB2A27C0023920707D54146280039
:102C50003C4B984789B24B424B41DBB25B00A27CB4
:102C600002218A431343A374626892192B0039002E
:102C70003548364CA047C3E7837C9B070BD4837C45
:102C80000122934383740368002BB9D02A003100DA
:102C900000209847B4E7837C022293438374426800
:102CA0009219002339002848284CA047A8E7436818
:102CB000C268944663441E0041468068214B984791
:102CC0000A007B1E9B01224959183000214B98476E
:102CD00082E74A469288524500D086E79E4200D15C
:102CE00083E79B1B9DB2154B9D4216D91D004146A3
:102CF0001800134B98476B1A9BB2984514D9A37CC4
:102D000004221343A3747A1E9201114BD218434636
:102D100039000D48104CA04772E741462800094B86
:102D200098476B1A9BB2E8E7626892193900064827
:102D3000094CA04764E7C046852B0000FF1F000038
:102D4000317F00005D7D00005C090020453D0000F2
:102D50009C0800203DA60000993D000010B505220A
:102D6000054B1A70054C80212000054B9847002127
:102D70002000044B984710BD9A0700205C090020F2
:102D8000993C0000BF3C000070B5084C06212000B3
:102D9000074DA84704212000A84702212000054B29
:102DA00098470220044B984770BDC0465C0900203C
:102DB000D9370000B9370000C52A000070B5124BA2
:102DC0009B8C9B061AD41049D022CB681340D02B81
:102DD000FBD10E4C022120000D4B9847042120000E
:102DE0000C4DA8470C4A062120000C4B98470621A1
:102DF0002000A84703200A4B984770BD02491022C3
:102E0000CB681A42FCD0E4E7000800405C090020CF
:102E1000D9370000B9370000892D00009537000030
:102E2000C52A000010B5064C04212000054B984728
:102E300002212000044B98470120044B984710BD05
:102E40005C090020D9370000B9370000C52A00000E
:102E500030B583B004001E4B9847802322689372DC
:102E600001AD28001B4B984703236B7029002000FD
:102E7000194B984719492000194B9847194B0222C2
:102E800000212000184DA847184B002200212000E7
:102E9000A847174B012200212000A8470222002149
:102EA0002000144DA847002200212000A84701223D
:102EB00000212000A84721680B890F4A1A4080236F
:102EC000DB0013430B8100220C4B1A7003B030BDA2
:102ED0001D0B0000E5390000F5390000DC0A002078
:102EE000E93D000039300000F53700002D330000C7
:102EF0003D2F000045380000FFF3FFFF9A07002038
:102F000010B50322074B1A70074C08492000084BE4
:102F10009847084B9A68002300212000064CA047E0
:102F200010BDC0469A0700205C090020DC0A002082
:102F3000E93D0000C40A0020453D000010B5897934
:102F40004BB2002B06DB0E4B1B78022B0FD0032B52
:102F500011D010BD0A4B1B78012B05D0042BF8D1E2
:102F60000848094B9847F4E7084B9847F1E70422D3
:102F7000034B1A70EDE70348034B9847E9E7C04657
:102F80009A0700205C090020993C0000012F0000F6
:102F900070B5204B1B88204A9489E41AA4B2002CF7
:102FA00018D11E4A11885B189BB213801A4AD28826
:102FB0009A4223D01A4B1B78002B1FD1164B5B690A
:102FC000002B23D09847002820D00022114B1A80D4
:102FD000114B9C893F2C19D90022114B1A704024A7
:102FE0000C4D2B880C4A9268D218230000210D4802
:102FF0000D4EB0472B88E4182C8070BD04220B4B7B
:103000001A700B4907480B4B9847F6E70122044B0F
:103010001A70E5E796070020C40A002098070020F0
:10302000940700205C090020453D00009A0700201D
:10303000DC0A0020E93D000010B50C002C4B1B7889
:10304000002B07D02B4B1B69002B00D09847002288
:10305000274B1A702388082B02D0274B984710BDA6
:10306000244A264B1978117059785170D87800028B
:1030700099780918518058790002197909189180B6
:10308000D97909029B795B18D3801D4B984700289A
:1030900016D0184B1B787F2B15D8164BDB88002BCE
:1030A00022D00023174A1380174A13800122104BA5
:1030B0001A704023114A00211448154CA047CEE74E
:1030C0000D4B9847CBE700230E4A13800E4A13801E
:1030D0000222074B1A704023084A00210B480C4C6F
:1030E000A0470C4B9847BAE70B4B9847B7E7C04649
:1030F0009A070020C40A00205D2D0000DC0A002091
:10310000AD0B000098070020960700205C09002006
:10311000993D0000912F0000012F000010B5014BD8
:10312000984710BD690B000010B5040001000A4863
:103130000A4B984720000A4B9847837CDB070AD547
:10314000837C0122934383740368002B03D0C168FE
:1031500022000120984710BD5C090020393C000086
:10316000852B000000207047024B1B68188A8004E2
:10317000400D70475C090020024B1B68188A80B222
:103180007047C0465C09002070B582B0040001ADF4
:1031900028000D4B984720000C4B98472C700023BB
:1031A000EB700B4E290030000A4B98470F2121404D
:1031B00000223000084B9847002221003000074BC6
:1031C000984702B070BDC046E539000029310000C3
:1031D0005C090020F53900001D3800001539000099
:1031E000F0B583B005000F00140001AE3000364B7F
:1031F00098473570082C13D8002201AB5A7028006C
:10320000324B9847048203213940012938D00229E2
:1032100043D0002303293DD1042201ABDA7032E010
:10322000102C03D8012201AB5A70E8E7202C03D8F8
:10323000022201AB5A70E2E7402C03D8032201AB13
:103240005A70DCE7802C03D8042201AB5A70D6E711
:1032500080235B009C4203D8052201AB5A70CEE765
:1032600080239B009C4203D8062201AB5A70C6E71C
:10327000174A002394420DD8072201AB5A70BEE7CB
:10328000022201ABDA7001A91248134B98470023C0
:10329000002806D0180003B0F0BD032201ABDA709D
:1032A000F1E70F2129400B4C0C4B002220000C4E63
:1032B000B0470022290020000A4EB0470122290011
:1032C0002000B0470123E5E7E5390000852B000029
:1032D000FF0300005C090020F5390000A92B000065
:1032E000F53700004538000010B501000148024BD9
:1032F000984710BD5C0900206F3C000010B5040029
:103300000F2303400020032B00D910BD21000448E7
:10331000044B98472000044B98470120F5E7C0462E
:103320005C090020993C00002931000070B5344B45
:103330001B78012B0AD0022B5FD0324B1B69002B6C
:1033400000D0984700222E4B1A7070BD0D882D4B6F
:103350009B892D4A14886219934201DA1D1BADB274
:10336000284B986800192A002849294B9847641966
:10337000A4B2254B1C80402D0AD0224B9C815B6956
:10338000002B02D09847002814D0224B9847DCE746
:103390001C4BDA88204B1B881B199A42EDDD194B18
:1033A0009B89A3420CD04023184A00211B481C4C87
:1033B000A047CAE70522124B1A701A4B9847C4E778
:1033C000104B5B69002B0BD0984700280FD0124997
:1033D0000D4A0B8810881B180B8000231380E2E72E
:1033E0000522074B1A7000200E4B9847ADE70522C7
:1033F000034B1A700B4B9847A7E70B4B9847A4E772
:103400009A070020C40A002096070020DC0A00204A
:103410003DA60000012F0000980700205C09002055
:10342000993D0000FD320000912F000070B50400AE
:103430000F2303400020032B00D970BD2000094B4F
:103440009847050021000848084B9847AB7C0120AD
:10345000DB07F2D5AB7C01229343AB742B68984712
:103460000120EAE7852B00005C090020BF3C00003A
:10347000F0B587B005000391029201930F26064034
:103480000024032E02D9200007B0F0BD644B9847FA
:10349000041E00D0BDE02800624B98470700EFF300
:1034A00010835A425341059372B6BFF35F8F0022D7
:1034B0005D4B1A70059A837CDB0708D5002AE2D0A1
:1034C0000122594B1A70BFF35F8F62B6DBE7837C32
:1034D00001210B438374002A05D00122524B1A703C
:1034E000BFF35F8F62B6029B7B60019BBB600023D2
:1034F000FB600C9B3B600123039A13405A00BB7C8A
:1035000002218B43134304229343BB746BB2002B01
:1035100020DB019B002B6FD09CB2444B9C425AD9BC
:10352000398A1C001800424B9847631A9AB23B8AAA
:103530009A4257D2BA7C04210A43BA74721E92018D
:103540003C49521831003C483C4CA047444244415D
:10355000E4B298E7019B002B27D09DB2334B9D42EC
:1035600006D9398A1D001800314B98476B1A9DB255
:10357000BB7C9B0707D5398A2800314B984789B215
:103580004C424C41E4B2012020404000BC7C02236C
:103590009C430443BC742B00029A31002648294CFA
:1035A000A04744424441E4B26DE7BB7C9B0705D58C
:1035B000BB7C02229343BB740025ECE7BB7C012259
:1035C0009343BB740C9B002B25D02A0000210020C4
:1035D0009847012457E7398A2000194B9847631A06
:1035E0009AB2A4E71300029A31001348134CA04783
:1035F00044424441E4B246E7BB7C01229343BB749E
:103600000C9B002B09D02A000021002098470124A0
:1036100039E7002437E7012435E7012433E7C046C2
:10362000E9320000852B0000F4000020FF1F00009D
:10363000317F00009C0800205C090020993D0000BB
:103640005D7D0000453D0000024B1B688022104359
:10365000987270475C090020024B1B68987A4006FC
:10366000400E70475C090020014B986099817047BB
:10367000C40A002070B50320164B9847164C2268E8
:10368000138901218B431381144A03312000144E06
:10369000B047144A00212000B047134A01212000FE
:1036A000B047124A02212000B04704212000104DEB
:1036B000A84700212000A84701212000A847022197
:1036C0002000A8470B4A06212000B0470621200011
:1036D000A84770BDC52A00005C090020252E000007
:1036E000953700001D310000512E0000BD2D000057
:1036F000B9370000892D000070B582B0EFF3108358
:103700005A425341009372B6BFF35F8F0026184BA5
:103710001E70009C01AD2800164B9847AE70164EE7
:103720002A0016493000164B98473000154B984731
:10373000154B9B8C9B0614D41349D022CB681340A5
:10374000D02BFBD10120114B9847114B9847002CEF
:1037500005D00122064B1A70BFF35F8F62B602B02C
:1037600070BD09491022CB681A42FCD0EAE7C04676
:10377000F40000200D4500005C09002000500041CD
:103780001D450000193E000000080040C52A000049
:103790007536000010B50B002E339B001A50AA227C
:1037A00052004900835A034C095B0B4383520020AB
:1037B00010BDC0466CBB00004900064BCB5A0268E6
:1037C0009383AB214900425A1A4342520268138341
:1037D000002070476CBB00004900054BCA5AAB2162
:1037E0004900435A9343435203689A82002070472A
:1037F0006CBB000010B58C00A4183434A40004196C
:10380000636040185930FF30037803498A5C1343E2
:103810000370002010BDC0467CBB000010B58B00BB
:103820009B1834339B00C31800245C604018593047
:10383000FF30034B9A5C037893430370002010BD64
:103840007CBB000070B50F230B40C4186134FF34FB
:1038500025782F4EB65C35432570002A29D1002BE0
:1038600012D103250A24FF3406683555032A09D1ED
:1038700049B2002944DB02685B01D3180A33FF33E5
:1038800020221A70002070BD4CB2002C08DB5C01B5
:103890000568AC4664440A34FF3401252570E5E729
:1038A0005C010568AC4664440A34FF340225257087
:1038B000DCE7012A1AD1002B05D102680C210A236A
:1038C000FF33D154DEE749B2002907DB02685B0110
:1038D000D3180A33FF3304221A70D3E702685B015E
:1038E000D3180A33FF3308221A70CBE7022ABDD15E
:1038F00002685B01D3180A33FF3310221A70C1E744
:1039000002685B01D3180A33FF3340221A70B9E70B
:103910007CBB000070B50F230B40C4186134FF342A
:103920002F4DAE5C2578B5432570002A29D1002B98
:1039300012D103258424640006683555032A09D171
:1039400049B2002944DB02685B01D3180933FF3315
:1039500020221A70002070BD4CB2002C08DB5C01E4
:103960000568AC4664440934FF3401252570E5E759
:103970005C010568AC4664440934FF3402252570B7
:10398000DCE7012A1AD1002B05D102680C2109338A
:10399000FF33D154DEE749B2002907DB02685B013F
:1039A000D3180933FF3304221A70D3E702685B018E
:1039B000D3180933FF3308221A70CBE7022ABDD18E
:1039C00002685B01D3180933FF3310221A70C1E774
:1039D00002685B01D3180933FF3340221A70B9E73C
:1039E0007CBB000000230370437083700133C370FD
:1039F00070470000F0B50C780F23234064B2CA78FA
:103A0000042A70D89200894DAA5897460268083354
:103A10005B0100219954002282E05C010268944617
:103A2000644480225200A55CE43A6D0778D1E43208
:103A3000A65C7025E43A2E4272D15F3DE432A55473
:103A40001A00083252010468A4182F356571006805
:103A50008218802010718A78002A1FD05801744A79
:103A600012185468802000060443546054692043AF
:103A7000506107254C785A016D4B9B1858682C40B3
:103A800024076C4E30402043586049785A692940D9
:103A9000090732400A435A61002241E05801644A52
:103AA00012185068400040085060506940004008BB
:103AB0005061DEE7002C35DB5D0102689446654409
:103AC00080225200AE5CE43A760729D18026760047
:103AD000AA5D02273A43AA5502681800083040013F
:103AE000121840205071E20F4F785D00AD182D0183
:103AF0004F4E7519686807243C4024074D4E3040EE
:103B0000204368608978002900D088E05B009B181A
:103B10001B01474AD3185A68520052085A600022C3
:103B20001000F0BD5D010268944665448022520099
:103B3000AF5C7026E43A3742F2D19036AA5D202776
:103B40003A43AA5502681800083040011218802034
:103B50001071C8E7002C17DB5D01026894466544CC
:103B600080225200AE5CE43A7607D9D180267600F6
:103B7000AA5D03273A43AA5502681800083040019D
:103B8000121840205071AEE75D010268944665440A
:103B900080225200AF5C7026E43A3742C0D19036A2
:103BA000AA5D30273A43AA55026818000830400140
:103BB00012188020107196E7002C17DB5D01026857
:103BC0009446654480225200AE5CE43A7607A7D161
:103BD00080267600AA5D04273A43AA550268180099
:103BE000083040011218402050717CE75D010268E6
:103BF0009446654480225200AF5C7026E43A374216
:103C000000D08DE79036AA5D40273A43AA55026856
:103C100018000830400112188020107163E76968AD
:103C200080231B060B436B60002279E758BB000022
:103C30001C0B0020FFFFFF8F0F230B4049B2002910
:103C40000ADB08335B010268D21840215171026817
:103C5000D3180122DA71704708335B010268D21869
:103C6000802111710268D3180222DA71F3E70F2361
:103C70000B4049B2002907DB026808335B01D31807
:103C80009879C006C00F7047026808335B01D318EB
:103C900098798006C00FF6E70F230B4049B2002940
:103CA00006DB026808335B01D31810225A71704793
:103CB000026808335B01D31820225A71F7E730B548
:103CC0000F230B4049B200291DDB5901026852182D
:103CD00083246400145DE40614D510258224640056
:103CE0001555026852180821FF31515C890609D523
:103CF000E43C0821FF315454026808335B01D318B7
:103D000001221A7130BD59010268521883246400DF
:103D1000145DA406F6D5202582246400155502689A
:103D200052180821FF31515C4906EBD5C43C0821EB
:103D3000FF315454026808335B01D31802221A7110
:103D4000E0E7000030B50C00083464010568645DEC
:103D50006406640F1C25002C01D1280030BD4C01E5
:103D60000B4D2D192C002A616A690A4D2A406261A7
:103D700062699B049B0C920B92031343636103687B
:103D800008314901591880234B710025E5E7C046E9
:103D90001C0B0020FF3F00F030B50C00083464011C
:103DA0000568645D64071C25002C01D1280030BD26
:103DB0000B4C4D012A51621954689B041B09094D93
:103DC0002C402343536053689B0B9B035360036851
:103DD00008314901591840230B710025E6E7C04618
:103DE0001C0B0020FF3F00F0094B19605A6809497D
:103DF0001140802292020A435A605A68920B920341
:103E00005A600268402182235B00D1540020704731
:103E10001C0B0020FF3F00F00268137802210B43C7
:103E2000137002689378022BFCD07047F0B5DE4621
:103E300057464E464546E0B583B0C44B1F683D68C3
:103E40002B78DB0914D12E8CB6B2002E00D02DE2D7
:103E5000AE8BB6B2AB235B00FB5AAA225200BD5A0E
:103E60001D4035400024BA4FB84B9946984608E2A9
:103E70002B8C9BB2002B00D13DE1288C80B2B54B3E
:103E8000984704001F2800D935E1030008335B017F
:103E9000ED18ED79EDB2AB0741D0AF4A0123834075
:103EA000116899431160030008335B013A68944636
:103EB00063440322DA713B18AE331B78DB072ED53F
:103EC000A64B18703A68030008335B019B5C9B07A4
:103ED0009B0F012B00D194E04201A14B9B185A6823
:103EE0001201920C90B29D494A805A689204920C39
:103EF0008A805A689B490A405A60002807D16201AB
:103F0000974B9B185B689B049B0C944A53808F4B88
:103F10001868A31C1B01C3185B68904998476B077E
:103F20001FD58A4B18680268230008335B019B5C2D
:103F30009B065B0F022B75D0230008335B019B5C53
:103F40009B065B0F032B00D19EE06201844B9B1804
:103F500000229A7203682200083252019B18042240
:103F6000DA712B0715D57C4A0123A34011689943C8
:103F70001160764B1868230008335B010268944691
:103F800063440822DA710319AE331B789B0700D50E
:103F900094E0EB0615D5704A0123A34011689943BC
:103FA00011606A4B1868230008335B01026894466D
:103FB00063441022DA710319AE331B785B0700D516
:103FC0008AE0AB0600D42FE1634A0123A3401168C5
:103FD000994311605D4B1868230008335B01026848
:103FE000944663442022DA710319AE331B781B0711
:103FF00000D419E159490C7024010419236B984726
:1040000012E14201564B9B185A689204920C534994
:104010004A805A681201920C8A805A68920B920365
:104020005A6074E7230008335B019B5C9B079B0F7E
:10403000012B81D161014A4B5B1808339B78DB0768
:1040400000D479E7444A0123A340116899431160E1
:104050006201434B9B1800229A72230008335B01D4
:104060000268944663440422DA710319AE331B7864
:104070009B0700D475E739490C7010234B7023015E
:10408000C3189B6A98476CE7230008335B019B5C6D
:104090009B079B0F012B00D057E76201304B9B1809
:1040A00000229A72230008335B010268D2180421AF
:1040B000D1710268D31810225A7152E727490C7047
:1040C0006201274B9B18DB891F2213404B70230191
:1040D000C3189B6A98475CE720490C706201204B2B
:1040E0009B185B681B019B0C4B802301C318DB6A88
:1040F0000021984765E7AC8BA4B2630738D5042349
:10410000AB83154B1D6801230120102602E001330B
:10411000082B29D002009A401542F8D039681A00BD
:1041200008325201525C9206520F032AEFD11A0054
:1041300008325201525C9207920F012AE7D11A000D
:104140000832520189180E71E1E7C04618080020B4
:104150006CBB0000F57F0000280800202C08002020
:104160001C0B0020FF3F00F09D33FB5CDB0762D49B
:1041700023070BD50022AF4B1A60AF4B18680823FA
:10418000026893839D33C35C9B0758D4630608D5AC
:10419000A94B18684023026893836533C35CDB0630
:1041A00050D4A30608D5A44B186820230268938333
:1041B0008533C35C1B0748D4E30608D59E4B1868BB
:1041C0001023026893839533C35C5B0740D42306B6
:1041D0000BD50022974B1A60974B18688023026812
:1041E00093832533C35C9B0635D4E3050CD50022AD
:1041F000904B1A60904B186880235B000268938391
:104200005B3BC35C5B0629D4A3050DD50022894B1B
:104210001A60894B186880239B00026893835C3B7B
:10422000FF3BC35C7F2B1CD803B03CBC9046994637
:10423000A246AB46F0BD7B683800984798E7836894
:104240009847A3E743699847ABE703699847B3E703
:10425000C3689847BBE783699847C6E7C36998472F
:10426000D2E7036A9847DFE723002E339B004246DC
:1042700012689B5871494246106898470134072CD0
:10428000D2D06300DB5B334203D04A461268126827
:1042900093832B42F2D0062CE6D1694B1B891B0974
:1042A000802252001340654A1360DDE73C00593418
:1042B000FF340023012294465F329146503A9246E1
:1042C0000D3A9346B8462F00C3E02A003D0047460A
:1042D00090465B01ED180823FF33EB5C5B0615D5B8
:1042E00040220823FF33EA54883BFF3B42461343F6
:1042F000544A937160230B4296D0019B1B01FB181B
:10430000E0331B684F49380098478DE70823FF3397
:10431000EB5C9B06EED520220823FF33EA54494B81
:1043200042469A71E6E73D004746019A130008337A
:104330005B01ED181023EB71BB186133FF331B7861
:10434000DB0600D470E7100052013D4B9B185B6800
:104350009B049B0C3B490B800301FB18DC331B685F
:104360004046984760E72A003D00474690465B017B
:10437000ED180823FF33EB5C9B071ED502220823B0
:10438000FF33EA542F48883BFF3B42461343837177
:10439000019B5A012A4B9B1810335B689B049B0CB2
:1043A00043808B0700D13FE7019B0D331B01FB18B6
:1043B0005B6824493800984736E70823FF33EB5CF5
:1043C000DB07EED501220823FF33EA541D4843469C
:1043D0008371019B5B011A4AD21853689B049B0CA2
:1043E000038053681B019B0C8380DAE70822FF32AD
:1043F0009A5C520779D504200822FF32985401981C
:1044000042010F4B9B189B7A9B0705D50C4B9B18C1
:104410009A7A022082439A720A4B42469A71019B11
:1044200008335B013A6894466344DB79DB075CD56B
:10443000FAE6C04628080020180800201C080020C2
:104440001C0B00202008002001330134082B00D170
:10445000EAE6DDB2019332001A4161461142F3D01F
:104460001A0008325201BA18D279D2B2217A114018
:10447000207801404846104200D026E750461042BE
:1044800000D050E75846104200D06CE70C20104294
:10449000DAD02A003D00474690465B01EB1808221F
:1044A000FF329A5C1207A1D504380822FF329854D3
:1044B00001984201134B9B189B7E9B0705D5114B1E
:1044C0009B189A7E022082439A7680235B42424662
:1044D00013430D4A9371019B08335B013A6894467C
:1044E0006344DB799B0700D59EE60C230B4200D189
:1044F0009AE6019B1B01FB18D8331B680249380060
:10450000984791E61C0B0020200800200022027032
:10451000012343708270C37070470000F0B5CE462F
:10452000474680B583B004000D00160000236E4A94
:1045300013606E4A106021606D49CA6920200243F1
:10454000CA6101AF7B700122BA70FB7006339946D5
:104550003B7039000838674B984698474B463B708C
:1045600039001920C047B3786A461370694606209F
:10457000614B98470620614B98472B7801221343E3
:104580002B70AB78DB07FCD45D4AD37803218B43D7
:1045900002210B43D370D3780C218B4308210B43AA
:1045A000D370584B1B689B03DB0E1F2B00D18FE091
:1045B0002A8D9B0154490A4013432B85514B1B689C
:1045C0005B02DB0E1F2B00D184E02A8D1F218A4362
:1045D00013432B854B4B1B689B015B0F072B00D1B3
:1045E0007AE02A8D1B0349490A4013432B85327810
:1045F0002978D2017F230B4013432B7071782B78DD
:1046000001220A40920004218B4313432B70404B3C
:104610006B62F378012B61D0002B06D122681389DD
:104620000C218B4304210B43138180225200002173
:104630003748384B9847231D21002431002204C3FA
:104640008B42FCD12100A43100221A605A609A608A
:10465000DA6010338B42F8D10023A422A354013234
:10466000A3542300A6332100AE3100221A701A721F
:1046700001339942FAD12300B8332100D43100220A
:1046800004C38B42FCD121005531FF3100221A6056
:104690005A609A60DA6010338B42F8D10023AA2264
:1046A0005200A3520232A35223005933FF33613424
:1046B000FF3400221A701A720133A342FAD1802209
:1046C000154B1A60002003B00CBC90469946F0BD13
:1046D0001A3B6DE7023B78E7043B82E722681389C7
:1046E00008318B431381A0E7280800201808002018
:1046F00000040040652A00006D290000E128000048
:1047000000500041246080003FF8FFFFFF8FFFFF53
:104710001C0B00204FA6000000E100E0FEE70000B7
:10472000F8B52A4A2A4B9A4211D01A00294B9A42CC
:104730000DD2294A03339B1A9B0801339B000022A8
:10474000234822498C58845004329A42FAD1234A91
:10475000234B9A420AD2D34321495B1803218B434E
:1047600004339B18002102C29342FCD11D4AFF2151
:104770001D4B8B439360FD3990235B001B4AD15046
:104780001B4AD3780325AB4302242343D370D37849
:104790000C27BB4308263343D370164B987B30223B
:1047A0009043202210439873997BB9433143997306
:1047B0009A7BAA4322439A730F4A536880210B4382
:1047C00053600E4B98470E4B9847FEE750C30000CE
:1047D00000000020E005002004000020E00500208B
:1047E000180D002000ED00E0000000000070004106
:1047F000005000410048004100400041F5A5000084
:10480000015F0000F0B5C64600B50C0090460028D8
:104810000FD1002A11DD8F18094E0A4D3068210092
:104820002B6898470134BC42F8D1404604BC9046FE
:10483000F0BD01235B429846F7E78046F5E7C046A6
:10484000240C00201C0C0020F0B5C64600B50E005C
:1048500015000138022810D8002A11D000240C4B72
:1048600098460C4F43461868315D3B6898470028CE
:1048700008DB0134A542F5D106E00124644203E0DF
:10488000140001E001246442200004BC9046F0BD05
:10489000240C0020200C00200300064A1268002A85
:1048A00004D0044A1068C318136070470249014AD3
:1048B0001160F6E734080020182D00200120404246
:1048C000704780239B014B60002070470120704798
:1048D0000020704700280AD0C369002B0AD0036A61
:1048E000002B0AD0436A5842584140427047012089
:1048F0004042FBE701204042F8E701204042F5E753
:10490000F0B5C64600B582B000AF78600E00140066
:104910002A229A5CA21892B2D11DC908C900684621
:10492000411A8D466D46002B20D0D9698846002952
:104930001FD0002C20D09978012912D0587813006C
:104940002A007968C047002819D10023EA5CF25494
:1049500001339AB29442F9D8BD4602B004BC9046E5
:10496000F0BD7F31786808437860E7E70120404276
:10497000F2E701204042EFE70C204042ECE7022042
:104980004042E9E7F8B5CE46474680B580468946BD
:1049900017001D1E39D01E6A002E39D0002A3AD0C9
:1049A0009B78012B1FD02B7A112B21D02B7C00243C
:1049B000152B1DD04B461A1943461919C9B26878F0
:1049C00001232E6AB047060001206B6A9847013424
:1049D000E4B2A3B29F42EDD8002E13D130000CBC3C
:1049E00090469946F8BD7E3302001A409046DAE7B9
:1049F00068783B004A464146B04706006B6A012092
:104A00009847E9E702267642E8E701267642E5E79D
:104A100001267642E2E70C267642DFE770B582B0E7
:104A20000400B6226B46DA71002832D0436A002BAC
:104A300032D00300B53A694607317E20184DA847A9
:104A400005000120636A9847002D14D1A378012B3B
:104A500014D00222E27108236371102121710D39F3
:104A6000A171E27363730C3323730023A373636830
:104A7000A360E3682361280002B070BD2300012217
:104A8000694607317F20074EB0470028E1D0050076
:104A9000F1E701256D42EEE701256D42EBE7C046E7
:104AA000854900000149000030B583B00400254B62
:104AB0009847A378012B2AD000222A23E254002809
:104AC00023D10023237023000122210000201E4D4A
:104AD000A8472378D12B2FD02300012221000020CA
:104AE000194DA8472378D12B26D02300012221007D
:104AF0000020154DA847002818D12378D12B18D1B4
:104B0000FF23E3702000114B984703B030BD012212
:104B10002933E2540028F8D12300012269460731E5
:104B20007F20094DA8470028CBD0EEE70320404264
:104B3000EBE703204042E8E70028E1D003204042B1
:104B4000E3E7C046D5480000014900001D4A0000C7
:104B500030B583B0041E00D185E0436A002B00D13C
:104B600084E000226B469A7103791A00103A022AF7
:104B700000D981E0027A9A424FD000226B46DA7166
:104B8000030001326946063140203D4DA847051E0D
:104B900014D12379122B16D06B4606331B785AB2E8
:104BA000002A28DB211D230001227E20354DA84745
:104BB0000500237A102B2CD023792372002D2CD0C2
:104BC000280003B030BD6B46991D0A787F231A4038
:104BD000FF3B13430B70230001224020294DA847BF
:104BE000051EEBD123000222694607315820254DCE
:104BF000A84705000AE06A46911D7F2213400B700A
:104C000023007E3A40201F4DA8470500002DD7D134
:104C1000C8E70520636A9847CEE7237B1A00143A59
:104C2000012A01D9172B24D1227C00259A42C7D012
:104C300021000C31230001227E20124DA8470500DF
:104C4000237C142B04D0172B06D0237B2374B7E7C7
:104C50005120636A9847F8E7237B152BF5D10A208A
:104C6000636A9847F1E701256D42A9E701256D4286
:104C7000A6E704256D42A3E704256D42A0E7C046E0
:104C8000014900008549000030B583B0041E00D101
:104C9000C5E0436A002B00D1C4E001A900230B80CA
:104CA000030002224020624DA847002801D003B033
:104CB00030BD62790F2A00D9A2E0637A934206D010
:104CC00001A803780F218B430A4013430370E37953
:104CD000022B00D994E0E27A9A4204D001AA137818
:104CE00070218B431370A379042040420C2BDED833
:104CF000A27A9A4206D001A842780F218A430B403B
:104D0000134343702300012201A94020494DA847C5
:104D10000028CCD163796372E379E3722300012226
:104D2000694605314120434DA8470028BFD1A379EA
:104D3000A37201A900230B802300022242303C4DC4
:104D4000A8470028B3D1627B0D2A5CD8637C9342CC
:104D500006D001A803780F218B430A401343037048
:104D6000E37B022B4FD801A91B01302213400A78A4
:104D70003020824313430B70A37B042B55D8A27CB5
:104D80009A4206D008004A7807218A430B40134311
:104D900043702300012201A94220264DA847002884
:104DA00000D084E7637B6374E37BE3742300012218
:104DB0006946053143201F4DA847002800D076E7FB
:104DC000A37BA37420001C4B9847002800D06EE7FB
:104DD00001AD00232B702300012229000230144C66
:104DE000A0472B78DB061B0F012B0FD0022B10D016
:104DF000032B11D0072B00D059E70920404256E77A
:104E00000420404253E70420404250E7062040423D
:104E10004DE7072040424AE70820404247E701208B
:104E2000404244E70120404241E7042040423EE73F
:104E30000149000085490000514B0000F0B585B0E4
:104E40000F0016001D004407E40F03231840002C38
:104E500000D00324002D00D1E0E002283ED003283A
:104E600000D18FE0012803D00520404205B0F0BDFD
:104E7000002F00D1D5E00922002168466F4B9847EA
:104E8000A21D2B00694612206D4DA847002822D193
:104E90006B465A7812021B7813433B806B46DA78D4
:104EA00012029B7813437B806B465A7912021B795E
:104EB0001343BB80032C02D00023BB60D6E76B46B4
:104EC0001B7A1B046A46D279120213436A4692790E
:104ED0001343BB60CAE702204042C7E7002E00D15F
:104EE000A2E00F2200216846544B9847002C1CD1A9
:104EF0002B00062269460C20514CA04700283BD1CC
:104F00006B465A7812021B78134333806B46DA786B
:104F100012029B78134373806B465A7912021B79F5
:104F20001343B3800023B360A0E722000C322B00B0
:104F300069460C20424CA047002820D16B465A7885
:104F400012021B78134333806B46DA7812029B7887
:104F5000134373806B465A7912021B791343B38053
:104F60006B469B7B1B046A46527B120213436A46C4
:104F7000127B1343B36079E70220404276E70220B8
:104F8000404273E7002E52D0002F53D00F22002151
:104F900068462A4B984722000C322B0069460C20A9
:104FA000274DA847002836D16B465A7812021B7845
:104FB000134333806B46DA7812029B781343738075
:104FC0006B465A7912021B791343B3806B46DA7928
:104FD00012029B7913433B806B465A7A12021B7A6A
:104FE00013437B806B46DA7A12029B7A1343BB80B1
:104FF000032C03D00023BB60B36037E76B469B7B79
:105000001B046A46527B120213436A46127B134307
:10501000BB60B3602AE70220404227E701204042FC
:1050200024E70120404221E7012040421EE7012001
:1050300040421BE70120404218E7C0464FA600004F
:105040000149000010B58EB001AA642301931C4BE6
:1050500053600023936013731376802189031161D9
:1050600001214942918225315354936208315354AE
:105070000131535401315354D7331386114BD3822A
:10508000114BD361114B1362114C12492000124B8A
:10509000984722680721D3691942FCD1136802217D
:1050A0000B4313600A4BDC8800231020518B014214
:1050B00004D10133A342F9D3102353830EB010BDA2
:1050C000480D00001027000002000C0002000D0037
:1050D0002C0C0020001000429D15000070B584B01B
:1050E00003AA0023137050700E49097868460180A6
:1050F0000221418001920372437283720A4A138033
:105100000A4D0B4E140069462800B047002806D00F
:1051100023885A1C2280FA2292009342F3D104B0D1
:1051200070BDC046280C0020380800202C0C002040
:10513000D519000070B504000D003A4B98473A4B62
:105140001C703A4B1D700020394B98470200002319
:10515000910F90008018594100184941354A0023A9
:1051600080185941344A0023344DA847344B98479E
:10517000AE20344DA847D520A8478020A847A820B6
:10518000A8473F20A847D320A8470020A847402091
:10519000A8478D20A847012C2CD01420294CA047CB
:1051A0002020A0470020A047A120A047C820A0475A
:1051B000DA20A0471220A0478120A047CF20A04797
:1051C000D920A047F120A047DB201E4CA04740205B
:1051D000A047A420A047A620A0472E20A047AF208C
:1051E000A0470023184A1370184A13700122184B65
:1051F0001A7070BD1020134CA0472020A04700203B
:10520000A047A120A047C820A047DA20A04712202D
:10521000A0478120A0479F20A047D920A047222057
:10522000A047D1E7455000003A0C0020280C002090
:1052300055280000571B0000581B00003580000057
:1052400001000020DD500000290C00203B0C002054
:10525000380C002010B543B2002B0EDB3F290CD8D0
:10526000002A0BD1CB08DB0118180A4C0723194080
:1052700001228A40235C9343235410BDCB08DB01F9
:105280001818044A07231940063B8B40115C0B4356
:105290001354F2E7F8000020F0B5DE464F464646CC
:1052A000C0B584B02120274CA0470020A0477F2014
:1052B000A0472220A0470020A0470720A0470024A5
:1052C00000239846204B9B46C14612E0250010352E
:1052D000ADB21E4F1E4E395D1E48B0470134A4B218
:1052E000AC42F8D11B481C4B98478023DB009C4202
:1052F00022D06B4642465A7040236A461370174BC1
:105300001B7893806B460122DA80029342461A731F
:105310005A739A735B464A461A80114E0A4D01A988
:105320000C48B0470028D1D02B885A1C2A80FA227A
:1053300092009342F3D1C9E704B01CBC9046994651
:10534000A346F0BDDD50000038080020F800002022
:10535000151A00002C0C0020FD190000280C00205C
:10536000E9190000044B8022D200991800221A701B
:1053700001338B42FBD17047F8000020F0B5DE46C8
:1053800057464E464546E0B583B005000E0017006F
:105390000CAA127893465A1AD11752184A409146CD
:1053A0003A1AD11752184A409246914504DD3A0004
:1053B0001F00130035000600BD4205DD32001E004F
:1053C00013002A003D0017007A1BD2B2110001928F
:1053D0009A1BD01712184240D2B290464C08F217CE
:1053E000D90F9E424A41524201231A430092BD42C4
:1053F00035DC3B004F4699460EE0E9B2F0B20022A0
:105400001A4B98474346E41AA3B21CB2002C1DDB8A
:1054100001352DB2A94522DB574508DD5B46002B3F
:10542000EBD0E9B2F0B20122104B9847EAE75B46B5
:10543000002B05D0F1B2E8B201220C4B9847E1E70E
:10544000F1B2E8B20022094B9847DBE7009A944694
:10545000664436B2019A944663441CB2D8E703B05E
:105460003CBC90469946A246AB46F0BD5552000062
:1054700010B582B000B2013A521809B2009313007D
:105480000200024CA04702B010BDC0467D53000090
:10549000F0B583B00091019308AB1F7804B21618E1
:1054A000B04209DA054DE0B23B00019A0099A847E5
:1054B000013424B2B442F6DB03B0F0BD71540000F5
:1054C00010B500280BD1A0200B4CA047C020A0474E
:1054D000D320A0470020A0474020A04710BDA12016
:1054E000054CA047C820A047D320A0470020A047D4
:1054F0004020A047F2E7C046DD50000043B2002B39
:1055000005DB3F2903D8024B1870024B1970704716
:10551000290C00203B0C0020002800D10130014B59
:1055200018707047380C0020F0B5DE4657464E46DE
:105530004546E0B585B0202815D007281CD008289E
:1055400026D00D2842D00A282BD1624B1978CB00E7
:10555000614A12789A18D2B25B1A9B18402B39DC38
:105560005D4B1A700DE05D4B1B78002B19D15C4B25
:105570001B78002B15D004E00023574A1370574ABC
:10558000137005B03CBC90469946A246AB46F0BDB0
:10559000524B19784F4B1A7853009B185B00994275
:1055A0000DDA8300181800239B464E4B1B180393FB
:1055B000484B9846484B9A46484B99463BE0062351
:1055C0005B425A438918454B1970DAE70022434B76
:1055D0001A70D6E70022404B1A70D2E73E4A117883
:1055E0006118C9B23D4A10783818C0B21A003E4B53
:1055F00098470134E4B26D08072C16D001232B40E4
:1056000042461278012AE9D02100514350460078E1
:105610000918C9B2380050434E4636788019C0B2D6
:1056200000931300314EB047E3E701239C46E34467
:105630005B46052B08D05B466A46D372D77A039B3C
:105640005A469D5C0024D9E7224D2A78D3009B1A44
:10565000DBB22149097890001018204C2678801977
:10566000C0B200260096214EB04729784B00CB18D7
:105670005B0022789B18DBB24A005218520080323D
:1056800093421FDC154A1370154B1B78002B00D179
:1056900077E7124B1B788A0052189B18802B00DC8E
:1056A0006FE700220D4B1A70CB000B4A12789B1843
:1056B000DBB2CA00511AC918402907DD0022064B87
:1056C0001A705EE78022054B1A70DDE7024A1370FC
:1056D00057E7C046380C00203B0C0020290C002066
:1056E000390C002080BB000055520000915400008E
:1056F00070B514001D00074B98472800064B9847CB
:105700002078002805D0054D0134A84720780028CE
:10571000FAD170BDFD540000195500002955000054
:10572000F0B5DE4657464E464546E0B587B0804662
:105730000E0005921A00039310AB1B780732D210AB
:105740000492002B3AD05B18DBB2029300239B46F5
:105750001E4B9A46994620E0002201992000D0472E
:105760000134E4B2A7420ED0A31BDBB2DA08A95C75
:1057700007221A40802313410B42EDD001220199E8
:105780002000C847ECE7B046019E01239C46E34455
:105790000136F6B2029B9E4210D0039B002BF4D040
:1057A000FF25049A15405A4655434344DFB2444608
:1057B000059B9C46654401964646D5E707B03CBC30
:1057C00090469946A246AB46F0BDC04655520000F1
:1057D00010B5041E0FD10020114B98470200002382
:1057E00010480021801859410F4A00230F4CA04750
:1057F0000F4B984710BD0020094B9847020000232B
:10580000200000210B4CA0470B4A0023801859416F
:105810000A4A0023054CA047054B9847EAE7C046D3
:1058200055280000BFCF6A00C0CF6A003580000055
:105830000100002075800000571B0000581B00006D
:10584000F0B583B000AF0400396016001D000733C7
:10585000DB08DB006A46D31A9D467B602A000021E4
:105860006846164B9847002C1BD0012C1FD0398856
:10587000134C00222000134B98472B00320079680C
:105880002000114DA8470500002210492000104EAD
:10589000B04700220F492000B04768B2BD4603B0B0
:1058A000F0BD012209490648094B9847DFE701226C
:1058B00008490348064B9847D9E7C0464FA6000061
:1058C000F40C0020ED1F000091210000C40C00200A
:1058D0009D200000400C0020F0B583B000AF040014
:1058E000396016001D000733DB08DB006A46D31A57
:1058F0009D467B602A0000216846164B9847002C85
:105900001BD0012C1FD03988134C00222000134BD0
:1059100098472B007A6831002000114DA8470500F8
:10592000002210492000104EB04700220F492000ED
:10593000B04768B2BD4603B0F0BD01220949064830
:10594000094B9847DFE7012208490348064B98476F
:10595000D9E7C0464FA60000F40C0020ED1F000060
:1059600091210000C40C00209D200000400C00206C
:105970004B1E9941014B19707047C0463A080020F0
:10598000012070477047000070B5154C2000154B82
:10599000984701232370FF336380FE3B63700E330F
:1059A0002371053B2373C0235B01E3810E4D22006D
:1059B0000E4928000E4B98472A68537E5BB2002B95
:1059C000FBDB0F2393751376137802210B431370BF
:1059D000054B1A68537E5BB2002BFBDB70BDC046E3
:1059E000440C00205D1000000C0D0020004000421F
:1059F000A510000030B591B0344C11232370002362
:105A00006370A37001A901224A708B700A70112083
:105A10002F4B98472278D1090023002904D153093C
:105A2000DB012C498C4663441F21114001221000E8
:105A300088409861284C1423237000236370A3705E
:105A400001A94A708B700A701420214B9847227864
:105A5000D1090023002904D15309DB011D498C46DB
:105A600063441F211140012210008840986102AC5C
:105A7000227000230393049323746374A274E2746A
:105A800023752332A354183A002108A8134B9847D2
:105A900080235B02E360124BA36201235B42E3625B
:105AA000104B2363104B6363104BA361104D220016
:105AB00010492800104B98472A68D369002BFCD165
:105AC000136802210B43136011B030BDC40C0020D9
:105AD0006D15000000440041400C00204FA600005E
